:100000000C9434000C9451000C9451000C94510049
:100010000C9451000C9451000C9451000C9451001C
:100020000C9451000C9451000C9451000C9451000C
:100030000C9451000C9451000C9451000C945100FC
:100040000C9451000C9451000C94A7000C94510096
:100050000C94DF000C9451000C9451000C9451004E
:100060000C9451000C94510011241FBECFEFD8E026
:10007000DEBFCDBF11E0A0E0B1E0E6EEF3E002C0EC
:1000800005900D92A233B107D9F721E0A2E3B1E0C8
:1000900001C01D92A63BB207E1F70E9453000C94E9
:1000A000F1010C940000CF93DF93CDB7DEB7A89792
:1000B0000FB6F894DEBF0FBECDBF4AE0BE016F5F42
:1000C0007F4F83E290E00E948B012AE0AE014B5EFD
:1000D0005F4F62ED72E086E999E40E9496010E940A
:1000E0002D0141E060E271EA87E090E00E94EE00BD
:1000F000789481E091E00E94410185E191E00E94C5
:100100004101CE0101960E94410182E191E00E94ED
:10011000410184E291E00E944101CE0145960E9496
:10012000410182E191E00E9441012FEF83ED90E3D4
:10013000215080409040E1F700C0000082E191E052
:100140000E94410182E191E00E944101D6CF1F92BD
:100150000F920FB60F9211248F939F93EF93FF93FB
:10016000E0913201F09133018091C600EA5CFE4FCC
:1001700080838091340190913501019690933501EF
:1001800080933401809132019091330101969093D4
:100190003301809332018091320190913301803894
:1001A000910520F01092330110923201FF91EF91EE
:1001B0009F918F910F900FBE0F901F9018951F92D7
:1001C0000F920FB60F9211248F9381E0809300015C
:1001D0008F910F900FBE0F901F901895442339F008
:1001E000E0ECF0E0208122602083A8E001C0A0E1E3
:1001F000B0E09B01AC010E9471019B01AC0160E089
:1002000074E284EF90E00E944F01BA01A9014150CD
:10021000510961097109DB01CA0188279F70AA276A
:10022000BB27892F9A2FAB2FBB278093C500409304
:10023000C400E1ECF0E08081886D8083E2ECF0E0C6
:100240008081866080830895909100019923E1F375
:10025000109200018093C600089580E090E0FC01B8
:10026000EA5CFE4F1082019680389105C1F708952F
:10027000909100019923E1F3109200018093C60050
:100280000895CF93DF93EC0189910E943801888112
:100290008111FACF0E942401DF91CF910895A1E24C
:1002A0001A2EAA1BBB1BFD010DC0AA1FBB1FEE1FF0
:1002B000FF1FA217B307E407F50720F0A21BB30B3B
:1002C000E40BF50B661F771F881F991F1A9469F7B7
:1002D00060957095809590959B01AC01BD01CF0113
:1002E00008950E947C01A59F900DB49F900DA49F3E
:1002F000800D911D11240895A29FB001B39FC001EC
:10030000A39F700D811D1124911DB29F700D811D41
:100310001124911D0895BB274A3031F4992322F40A
:10032000BDE2909581959F4F0C94C801BB272A3060
:1003300051F4992342F4BDE29095809570956195B2
:100340007F4F8F4F9F4F0C94A601BB27FA01A62F1A
:100350006217710581059105330B30FB66F0AA2702
:10036000660F771F881F991FAA1FA21710F0A21BE4
:1003700063953850A9F7A05DAA3308F0A95DA19351
:1003800036F7B111B1931082CA010C94E101BB2779
:10039000FB015527AA27880F991FAA1FA41710F041
:1003A000A41B83955051B9F7A05DAA3308F0A95D4D
:1003B000A193009779F7B111B1931192CB010C94ED
:1003C000E101DC01FC01672F71917723E1F732979E
:1003D00004C07C916D9370836291AE17BF07C8F320
:0603E0000895F894FFCF20
:1003E6000150726F6772616D205374617274202EB2
:1003F6002E2E0A0D0054656D7065726174757265F6
:10040600203D20004C6F6E672076616C7565203D3F
:020416002000C4
:00000001FF
